:020000040000fa
:080000000002040000000000f2
:020000040000fa
:0400080040030000b1
:020000040000fa
:04000c0040030000ad
:020000040000fa
:0400100040030000a9
:020000040000fa
:0400140040030000a5
:020000040000fa
:0400180040030000a1
:020000040000fa
:04001c00400300009d
:020000040000fa
:040020004003000099
:020000040000fa
:040024004003000095
:020000040000fa
:040028004003000091
:020000040000fa
:04002c00400300008d
:020000040000fa
:040030004003000089
:020000040000fa
:0400340010030000b5
:020000040000fa
:040038004003000081
:020000040000fa
:04003c00400300007d
:020000040000fa
:040040004003000079
:020000040000fa
:04004400280300008d
:020000040000fa
:040048004003000071
:020000040000fa
:04004c00400300006d
:020000040000fa
:040050004003000069
:020000040000fa
:040054004003000065
:020000040000fa
:040058004003000061
:020000040000fa
:04005c00400300005d
:020000040000fa
:040060004003000059
:020000040000fa
:040064004003000055
:020000040000fa
:040068004003000051
:020000040000fa
:04006c00400300004d
:020000040000fa
:040070004003000049
:020000040000fa
:04007400d8020000ae
:020000040000fa
:040078004003000041
:020000040000fa
:04007c00400300003d
:020000040000fa
:040080004003000039
:020000040000fa
:040084004003000035
:020000040000fa
:040088004003000031
:020000040000fa
:04008c00400300002d
:020000040000fa
:040090004003000029
:020000040000fa
:040094004003000025
:020000040000fa
:040098004003000021
:020000040000fa
:04009c00400300001d
:020000040000fa
:0400a000c802000092
:020000040000fa
:0400a400d002000086
:020000040000fa
:0400a8004003000011
:020000040000fa
:0400ac00400300000d
:020000040000fa
:0400b0004003000009
:020000040000fa
:0400b4004003000005
:020000040000fa
:0400b8004003000001
:020000040000fa
:0400bc0040030000fd
:020000040000fa
:0400c00040030000f9
:020000040000fa
:0400c40040030000f5
:020000040000fa
:0400c80040030000f1
:020000040000fa
:0400cc0040030000ed
:020000040000fa
:0400d00040030000e9
:020000040000fa
:0400d40040030000e5
:020000040000fa
:0400d80040030000e1
:020000040000fa
:0400dc0040030000dd
:020000040000fa
:0400e00040030000d9
:020000040000fa
:0400e40040030000d5
:020000040000fa
:0400e80040030000d1
:020000040000fa
:0400ec0040030000cd
:020000040000fa
:0400f00040030000c9
:020000040000fa
:0400f40040030000c5
:020000040000fa
:0400f80040030000c1
:020000040000fa
:0400fc0040030000bd
:020000040000fa
:0401000040030000b8
:020000040000fa
:0401040040030000b4
:020000040000fa
:0401080040030000b0
:020000040000fa
:04010c0040030000ac
:020000040000fa
:0401100040030000a8
:020000040000fa
:0401140040030000a4
:020000040000fa
:0401180040030000a0
:020000040000fa
:04011c00400300009c
:020000040000fa
:040120004003000098
:020000040000fa
:040124004003000094
:020000040000fa
:040128004003000090
:020000040000fa
:04012c00400300008c
:020000040000fa
:040130004003000088
:020000040000fa
:040134004003000084
:020000040000fa
:040138004003000080
:020000040000fa
:04013c00400300007c
:020000040000fa
:040140004003000078
:020000040000fa
:040144004003000074
:020000040000fa
:040148004003000070
:020000040000fa
:04014c00400300006c
:020000040000fa
:040150004003000068
:020000040000fa
:040154004003000064
:020000040000fa
:040158004003000060
:020000040000fa
:04015c00400300005c
:020000040000fa
:0402080040030000af
:020000040000fa
:04020c0040030000ab
:020000040000fa
:0402100040030000a7
:020000040000fa
:0402140040030000a3
:020000040000fa
:04021800400300009f
:020000040000fa
:04021c00400300009b
:020000040000fa
:040220004003000097
:020000040000fa
:040224004003000093
:020000040000fa
:04022800400300008f
:020000040000fa
:04022c00400300008b
:020000040000fa
:040230004003000087
:020000040000fa
:0402340010030000b3
:020000040000fa
:04023800400300007f
:020000040000fa
:04023c00400300007b
:020000040000fa
:040240004003000077
:020000040000fa
:04024400280300008b
:020000040000fa
:04024800400300006f
:020000040000fa
:04024c00400300006b
:020000040000fa
:040250004003000067
:020000040000fa
:040254004003000063
:020000040000fa
:04025800400300005f
:020000040000fa
:04025c00400300005b
:020000040000fa
:040260004003000057
:020000040000fa
:040264004003000053
:020000040000fa
:04026800400300004f
:020000040000fa
:04026c00400300004b
:020000040000fa
:040270004003000047
:020000040000fa
:04027400d8020000ac
:020000040000fa
:04027800400300003f
:020000040000fa
:04027c00400300003b
:020000040000fa
:040280004003000037
:020000040000fa
:040284004003000033
:020000040000fa
:04028800400300002f
:020000040000fa
:04028c00400300002b
:020000040000fa
:040290004003000027
:020000040000fa
:040294004003000023
:020000040000fa
:04029800400300001f
:020000040000fa
:04029c00400300001b
:020000040000fa
:0402a000c802000090
:020000040000fa
:0402a400d002000084
:020000040000fa
:0402a800400300000f
:020000040000fa
:0402ac00400300000b
:020000040000fa
:0402b0004003000007
:020000040000fa
:0402b4004003000003
:020000040000fa
:0402b80040030000ff
:020000040000fa
:0402bc0040030000fb
:020000040000fa
:0402c00040030000f7
:020000040000fa
:0402c40040030000f3
:020000040000fa
:0402c80040030000ef
:020000040000fa
:0402cc0040030000eb
:020000040000fa
:0402d00040030000e7
:020000040000fa
:0402d40040030000e3
:020000040000fa
:0402d80040030000df
:020000040000fa
:0402dc0040030000db
:020000040000fa
:0402e00040030000d7
:020000040000fa
:0402e40040030000d3
:020000040000fa
:0402e80040030000cf
:020000040000fa
:0402ec0040030000cb
:020000040000fa
:0402f00040030000c7
:020000040000fa
:0402f40040030000c3
:020000040000fa
:0402f80040030000bf
:020000040000fa
:0402fc0040030000bb
:020000040000fa
:0403000040030000b6
:020000040000fa
:0403040040030000b2
:020000040000fa
:0403080040030000ae
:020000040000fa
:04030c0040030000aa
:020000040000fa
:0403100040030000a6
:020000040000fa
:0403140040030000a2
:020000040000fa
:04031800400300009e
:020000040000fa
:04031c00400300009a
:020000040000fa
:040320004003000096
:020000040000fa
:040324004003000092
:020000040000fa
:04032800400300008e
:020000040000fa
:04032c00400300008a
:020000040000fa
:040330004003000086
:020000040000fa
:040334004003000082
:020000040000fa
:04033800400300007e
:020000040000fa
:04033c00400300007a
:020000040000fa
:040340004003000076
:020000040000fa
:040344004003000072
:020000040000fa
:04034800400300006e
:020000040000fa
:04034c00400300006a
:020000040000fa
:040350004003000066
:020000040000fa
:040354004003000062
:020000040000fa
:04035800400300005e
:020000040000fa
:04035c00400300005a
:020000040000fa
:100400004f8320000edf20000e0188000000000056
:10041000000020000000e000020032000001200087
:100420002002880014000700970007000000e00089
:1004300003003a00c0ad2100010020000200370097
:100440000000200001002000810f70000100320038
:1004500014000700000020000000e000020032004d
:1004600000000200000000004c1b02000000000021
:100470000040da000000fe004440a9000000200017
:100480000000e0000300320000002000a00188000e
:100490004440a800000006008a1f78008b1f7800e7
:1004a0000000060091018800800478000000eb0045
:1004b0001a003700e284440032a0b4009905ba0063
:1004c000e284440032a0b4009906ba00e2844400f9
:1004d00032a0b4000006eb00476fde00fd07b2005b
:1004e000636ce10003003a00ebff07000000eb0043
:1004f0000a003700606ce10004003a00005deb0088
:100500008b05e900fdff3e00040037006168e10053
:10051000010032000086eb000b00070019c7ba008b
:100520001905ba000e04e00003003a000a00e000da
:10053000e0ff3a0000000600fe07b2009e018800be
:100540008a047800f5ff3700395dba008b05e900b1
:100550000c003200295dba008b05e900080032006a
:100560000c00e00003003a00e284440032a0b40032
:10057000f5ff370019ddba008b05e900faff3a00f4
:100580008904e800e184440032a0b40000000600c1
:100590000000fa0087c0a9000080fa0000400600b1
:1005a0000000fa0087e0a9000080fa000040060081
:1005b000801f78003400f80000002000a0018800af
:1005c0000000fa008660a900101680006400600038
:1005d0000000e00002003a001000200060408800a7
:1005e00010168000700060000000e00002003a0079
:1005f00010002000704088005016800070006000dd
:100600000000e00002003a00100020008040880056
:100610000080fa003400f9004f0078000040060026
:10062000801f78003400f80000002000a00188003e
:100630000000fa008460a9001000200090408800ab
:100640000080fa003400f9004f00780000400600f6
:10065000801f78003400f80000002000a00188000e
:100660000000fa0084e0a90010002000a0408800eb
:100670000080fa003400f9004f00780000400600c6
:100680000040da000000fe00000005000001be008e
:100690001e0007000470a70003f0a10003f8a300e8
:1006a00013003a006509b10010003200090035005e
:1006b0006928e10002003500010028000000050063
:1006c00000004000818048008502e900fcff3a00fc
:1006d00000000600f88f4200050035008100d100bf
:1006e0000080d3008502e800fcff3a00000006000d
:1006f0008000eb00000005004f89de0082017800d9
:10070000a60137006011b800b4013700c70ade0047
:10071000f107b200f50fb20008003200e1cf42004d
:10072000020032000170a00024000500810f70005b
:10073000010032000408050044000500810f70002c
:1007400002003a00140005008502e90000004000a4
:1007500081c04800fcff3b000170a00024000500a0
:100760006022b800060220000000d0008180d20084
:100770000482d2008582d2000000a0000202520052
:1007800083825a00030031000202420083824a0041
:100790000000a1000603e900f3ff3a000000060094
:1007a000889fbe008a9fbe008c9fbe001b00200059
:1007b0000202be00058668000600280006066600e4
:1007c0004709de00f20fb200820032000243e80067
:1007d00080003200c729de00f30fb2007d00320036
:1007e0000343e8007b003200f107b2000170a00073
:1007f000f507b2000570a000c708dd004903de0060
:10080000868070004700dd00c72add004923de0036
:10081000868272004722dd00030551000403500068
:1008200085835800030031000000400081804800ab
:100830000a05e9008c1f78008a9fbe000400500062
:10084000858058000402420085824a000000400072
:10085000818048000005eb000004be006033b80052
:100860000406be000d48e1005600310011000900e9
:100870004dccd8000c01b8000d02b80084814100b5
:1008800060824a008283530003045c0084845c001d
:1008900060055d000a00e00025003a008005780050
:1008a0000d40e10049003100880078000700780021
:1008b000110009004d88d8000c01b8000d02b800e5
:1008c0008481410060824a006003110083835b00e1
:1008d00004045c00e0845c000900e00021003a00b0
:1008e0004f01be000300e0002b003200e301600076
:1008f000070673008c8171000100320064007000f3
:100900004200de004e5edd000c007000c258de00ca
:1009100001e0a0009b000700cf01780081807100fa
:100920004f06be004f05be004f04be00000006008b
:100930008c8343000d044c00e0844c0060054d00a6
:100940000000e9000a00e000d4ff32008c8343007d
:100950000d044c00e0844c0060054d000000e900ef
:10096000ceff37000c0343008d834b0060044c0026
:10097000e0844c000000e9000900e000d8ff3200ec
:100980000c0343008d834b0060044c00e0844c005a
:100990000000e900d2ff37004200de004e5edd00bd
:1009a0000c007000c258de0001e0a000cf0178000a
:1009b0000300e000daff320060001000e080180061
:1009c000d7ff3700f0ff2f00aaff3700f0ff2f00fe
:1009d000b9ff37000404be00500007008706780006
:1009e0000004fd008104fd004c0007000783660041
:1009f0000678a300030032000960a7000800be00cb
:100a00002c0037000d78a300020032000800be0061
:100a1000280037000778a30026003a0001f0a10063
:100a200009f0a1000668a30003003200f1ff2700cf
:100a3000f0ff2f00baff37000d68a300030032005b
:100a40000800be008c807000b5ff37000768a30067
:100a500007003a000648a30003003200f1ff270018
:100a6000f0ff2f00aeff37000d48a3000300320057
:100a70006000b8008c807000a9ff37000748a30011
:100a80000400320001f82700000020008c80700074
:100a9000a3ff37008e0007000004fd008104fd0065
:100aa000020578008a0007000802be008a0178006b
:100ab00059ff37000160a00012022000c2408800e8
:100ac00097ff37000100e000120032000500e0004f
:100ad00010003200889fbe008a9fbe008c9fbe001f
:100ae0000006eb0001f8a3000300320060001000d4
:100af000e08018000cf0a00005f8a300030032000d
:100b000060021200e0821a000cf0a2008005eb00e7
:100b100041ff37006000b8000200050027002000f8
:100b200001f0a70017002000470bde00f60fb2000f
:100b3000040032000643e8000a0032004702b30016
:100b40000000060001037800f607b20006037000fb
:100b500002003a000703b300000006008702b3005a
:100b60000000060001037800f607b20006037000db
:100b7000020032000770a000000006000760a0001d
:100b80000000060081017000270032008002eb00a7
:100b900001f8a3000300320060001000e08018009c
:100ba00015002000f407200002024200200034005b
:100bb000f7032000870360000604200000036300a1
:100bc00002082000000161004700de00c909dd00c5
:100bd00000807100c708de000600e0000800320057
:100be00087037100060032001000b0000180b000e1
:100bf0000188a30002003200c108de000402e80000
:100c0000f107b200f30f20000320e10003003d00d4
:100c10004722dd00810072002900370001f827001b
:100c20000000eb00260037006000b800000006005e
:100c3000680212007f20e100020034006000b8006a
:100c40001f0037006011b8007020e100040035007b
:100c500080017800010078008000eb0070025200f3
:100c60000400e00009003400f00312000719dd0061
:100c70008419de000703dd00868171000400de00b8
:100c8000070bdd00060070008408de00f7ff270078
:100c90008383630087037100060028000303630059
:100ca000070032000700e00003003a006101600025
:100cb00002817300020032001000b0000180b00019
:100cc0000500a6000000060001f0a00000000600dc
:100cd0004f0ade004709de00f107b200f20fb20052
:100ce0000b003200f207b1000170a000c708dd0060
:100cf000c901de00838070004700dd000400a6000b
:100d00000000060060001000e080180000000600ef
:100d1000810f700001003a00000006008182cf00c0
:100d20000500e00010003e008082cf00ee8242000d
:100d30007028e1000400390007003e0080007800c0
:100d40000000eb000e003700708312008600de000a
:100d50000500dd000a003700708352008600dd00c8
:100d60000000eb0006003700e28252008508dd003b
:100d7000708312000603de00868070000500dd002f
:100d80007507b0000501ea000400a6000000060097
:100d900060001000e080180000000600881f780046
:100da000030478000300e00007003d00600010002d
:100db000e080180060011900e081190002003b008a
:100dc00001f02d00030037000400070008f0a70021
:100dd00001f0a0004f04780000000600889fbe00cc
:100de0008a9fbe00008270000402710004827100bc
:100df000260032000004be000200be006011b800f0
:100e00006b092000950220000182cf000a00390002
:100e10000541b1000082cf00070039000541b10053
:100e20000982cf00040039000541b1000882cf00db
:100e3000010039000541b1000542520012003200a4
:100e40000a003b0082817100610164008100d100d1
:100e50000080d3008984d3000884d3008b05e80088
:100e60000442e800f7ff3a00070037000804440096
:100e700089844c0000004800818048008b05e9000f
:100e80000442e900f9ff3a00030007004f05be00e5
:100e90004f04be0000000600810020006180550064
:100ea0000b003d000b00200061fe2f000100e1005f
:100eb0001d00340082817100610164008904d10049
:100ec0000884d3000000e800faff3a007100200017
:100ed000610064000300700002006000090032003d
:100ee00061044400e0844c000988a500050032003c
:100ef0008b05e8006808e10002003a008904d1008f
:100f00000884d300f20f20000258e10005003d00e4
:100f1000c75ddd00f907b200898075000800780020
:100f2000000006000bf827008b0078000000050089
:100f30004f02b000889fbe008a9fbe008c9fbe00fb
:100f40008e1f78000005be000204be00b2af9f00f5
:100f5000c3af9f00b2b79f00c3b79f00cfae97004b
:100f60000df0a10002067800e00f5600e08f5e0051
:100f7000c0033200faaf9f008bb79f000000200033
:100f800001f82300800f5500818f5d00b903320006
:100f90008fb2970005f0a1007faa970094b79f0039
:100fa000a5b79f000000200001f82700800f520025
:100fb000818f5a0003003c00800f5600818f5e0035
:100fc000040034000a01be000800be0096040700b9
:100fd000af0337006033b8007fa997008fb1970047
:100fe000e00f5100e08f590029003d00260020004d
:100ff00007002000f0ff2f00f1b72400800f5600fb
:10100000818f5e0022003c006033b800f0ff2f00ab
:10101000f1f72300800f5600818f5e00330034000b
:1010200047e8de00cfe8de00f007b1000180b10044
:10103000770110000c00be00820178008301e900f6
:10104000030033008180d1000080d300fbff370014
:101050000003be00020778000e07e900030033001a
:101060000603430087834b00fbff37000601be00e9
:101070006033b8008c0f51008d8f59001b003a006f
:101080006103600062031300e0831b001700370058
:101090000000200001f82700800f5600818f5e00bd
:1010a00012003a000000200001f82300800f5200d7
:1010b000818f5a006f033200060034003fb0970062
:1010c000cfb09700e00f5000e08f580071033d0053
:1010d0006b0337003fb19700cfb19700e00f51008d
:1010e000e08f590066033d006900370000002000d2
:1010f00001f82300800f5600818f5e0009003a003e
:101100003fb29700cfb29700e00f5200e08f5a0035
:101110005d033d000a01be000000200001f823002d
:101120005500370000002000010024003fb1970067
:10113000cfb19700800f5100818f590003003a0012
:101140000a01be000a00be0048033700000020006c
:1011500001f023003fb19700cfb19700800f5100fd
:10116000818f590008003a007fa897008fb0970040
:10117000e00f5000e08f5800030035000a00be0069
:1011800075030700420337000a00be00f4b79f0052
:1011900085bf9f00d6b79f00e7b79f00f803070001
:1011a0000200200003f827007fb297008fba970053
:1011b0005fb39700efb39700820f5200838f5a00fe
:1011c00008003200e00f5200e08f5a0005003200a4
:1011d0000200200003f82300820f5200838f5a0080
:1011e0002d003a003fb19700cfb19700e00f5100ba
:1011f000e08f59000c003d000001be0000002000ff
:1012000001f82300f4b79f0085bf9f00d6b79f0069
:10121000e7b79f0062fd07007fb297008fba970083
:101220005fb39700efb397007fa997008fb1970046
:10123000e00f5100e08f590015033d00020020002f
:1012400003082c0004024100858249000402730057
:1012500085827300e00f5200e08f5a0008003a00c8
:1012600012022000924188000001be000200be0070
:10127000e40307000001be0049fd07000403370036
:10128000e10f5300e08f5b0001033a000004be0051
:1012900009f0a200ff0237007fa997008fb19700e5
:1012a000e00f5100e08f59000d003d00e00f5300aa
:1012b000e08f5b0004003a0010022000904188009b
:1012c0000a01be00e9ff3700e10f5300e08f5b0029
:1012d000080032000600200007f82300070037004e
:1012e0000200200003f82300f2af9f0083b79f00a5
:1012f000040037000600200007f82b00f6af9f001f
:1013000087b79f000200200003d02400820f560000
:10131000838f5e005600340072ff2f00f3f7230026
:10132000820f5200838f5a0006003c003fb09700a6
:10133000cfb09700e00f5000e08f580004023d004e
:10134000e20137007200200003f82300820f5200f0
:10135000838f5a00060034003fb19700cfb1970049
:10136000e00f5100e08f5900d8013c00f801370030
:101370000200200003f82300a20307000005be00be
:1013800002a02a0083fb23008c04070090b79f0073
:10139000a1b79f0002572a00c36e23000a00be00b7
:1013a000860407000002be000a01be000a00be005b
:1013b000f4b79f0085bf9f00800407000006be00b1
:1013c0000200200003e823000a00be007b0407009f
:1013d0000001be00b0aa2a00a1ea23008903070089
:1013e0000001be000a00be00740407000001be0038
:1013f0000000200001f02300820307000001be006e
:101400000c00be006d040700b2a32a0083fb23007a
:101410006a0407000001be007fb297008fba9700f0
:101420000400be00770307000005be000001be00f7
:101430001fb09700afb097007b0307000001be000c
:101440008300780004002f00020062000003be0049
:10145000b6b79f00c7b79f001fb19700afb1970005
:10146000680307000001be000a00be0056013700f5
:101470006011b800f6ff2f00f7072000860f52001a
:10148000878f5a0007003c000200200003b82400a8
:101490004a04070090b79f00a1b79f0082fe2f006b
:1014a000f3ff2f00f207b1000380b1002fb29700c5
:1014b00047a0de0084027800cfa8de0002034000cf
:1014c0008383480096af9f00a7af9f0085007800f8
:1014d000f107b2001fb097000200200003f82300bc
:1014e000020270008382700094b79f00a5b79f002e
:1014f0006033b800d6af9f00e7af9f0012472c00c3
:10150000c3012000820f5000838f58001a0034005e
:101510001200200003002000d2af9f00e3af9f0025
:10152000623d2b00d3052000820f5000838f5800ae
:10153000110034001faa9700afaa97006102420071
:10154000e0824a0094af9f00a5af9f0000002000fa
:1015500001f82f001fb39700afb3970006034000b8
:101560008783480096b79f00a7b79f006000b80028
:10157000d0af9f00e1af9f00dfa89700c208dd0059
:1015800081af9f00a0812000010040001005be0037
:101590000a01be001fb09700afb097001903070003
:1015a0000006be000a01be001fb09700afb0970052
:1015b0001d0307000001be000000200001f8230009
:1015c00077fc07000002be000001be000c00be0058
:1015d000f4b79f0085bf9f00f80307000003be001b
:1015e0000e002f0081017800c3b79f000001670043
:1015f000b2b79f005fa89700efa89700c500dd0075
:1016000000002000d0af9f00e1af9f00000020004d
:10161000010420005fa99700efa997000201400094
:1016200083814800d2af9f00e3af9f001fb09700b7
:10163000afb097008181d1000081d3008300780092
:1016400001d0a1000200670001d0a0005fa99700af
:10165000efa997000201400083814800d2af9f00ac
:10166000e3af9f005fa99700efa997003fb09700f5
:10167000cfb09700d6b79f00e7b79f00cf03070012
:101680000001be000c00be00de0207000006be0026
:101690000a01be005fa89700efa89700d9020700d3
:1016a0000001be001fb09700afb09700d502070041
:1016b0000001be003fb09700cfb09700bf03070006
:1016c0000001be000c00be00ce0207000001be00fb
:1016d0007fb297008fba97000400be00b7030700df
:1016e0000006be005fb39700efb397000601be008f
:1016f0000600be00b10307000005be000001be00e9
:10170000ae0307000002be0022142f0033e52300c1
:101710000a00be00f4b79f0085bf9f00a703070023
:1017200052252300c3e62300bf0207000001be00cc
:101730000a00be00a103070052302a00b3e82300cc
:10174000b90207000001be000a00be009b030700ab
:10175000b2aa2a00a3ea2300b30207000001be00d8
:101760000a00be009503070072db2600b3ed2300dc
:10177000ad0207000001be000a00be008f03070093
:10178000a299290093f12300a70207000001be00df
:101790007fb297008fba97000400be00870307004e
:1017a0000005be005fb39700efb397000601be00cf
:1017b0003fb09700cfb097009b0207000001be002a
:1017c0000c00be007d0307000001be000a00be0041
:1017d0009502070090b79f00a1b79f003fb1970007
:1017e000cfb197000200be00740307000005be00e1
:1017f00002002000030424008b0207001fb19700a1
:10180000afb19700880207008102780000026700ec
:101810000401be003fb09700cfb09700f4b79f001f
:1018200085bf9f0065030700b0b79f00c1b79f0049
:101830007fb297008fba97000401be000c00be0073
:101840005e0307000006be0002002000030424001f
:101850007fb297008fba97000400be0069020700ac
:101860000a01be00670207000001be001fb097001a
:10187000afb09700630207005fb39700efb3970024
:101880000601be004d0307000001be000c00be00b3
:10189000650207000005be000001be003fb09700d2
:1018a000cfb0970060020700810278000002670055
:1018b0000200240063f723000400be00f4b79f0079
:1018c00085bf9f003d03070090b79f00a1b79f0011
:1018d000623c2200638f2b007fb297008fba970083
:1018e0000400be00350307000006be003fb19700ac
:1018f000cfb197007fb297008fba97000400be0067
:10190000400207000001be000a00be003d020700c1
:10191000f284230063f72300280307000001be00c0
:101920000c00be0040020700228220008fab97000f
:10193000070141001201be003b020700d0af9f002b
:10194000e1af9f001fa89700afa897006afb0700b0
:101950000006be00a08220008fa99700030040006f
:101960001005be005fa99700efa997001fb0970070
:10197000afb097002c0207000a01be002a02070040
:101980000c01be00280207000001be0083007800a1
:10199000020067000002be00b4b79f00c5b79f00f9
:1019a0000c01be00170207000a01be001502070065
:1019b0001fb19700afb19700120207000001be00ef
:1019c0005fa89700efa897000e0207000005be0071
:1019d000cfaa970000002f00bfab9700070260005e
:1019e0000401be000800be00f4b79f0085bf9f0041
:1019f000040207003fb19700cfb19700ef02070044
:101a00000006be000a01be000800be00eb0207008f
:101a10000001be000c00be00030207000004be006f
:101a20003fb19700cfb197007fb297008fba970070
:101a30000400be00e10207000005be00b0b79f0031
:101a4000c1b79f000a01be000800be00f6010700f2
:101a50000006be000003be0000002000013024008c
:101a6000800f5600818f5e0018003c00800f5600ea
:101a7000818f5e001d003a00c2a32a008333230039
:101a80000800be00dcb79f00e7b79f00e601070033
:101a90000002be000a01be000c00be00f4b79f00a9
:101aa00085bf9f00d70107000001be007fb29700ed
:101ab0008fba97000400be00d00107005fb3970003
:101ac000efb397000000e00029003400a22c2f00a3
:101ad000931427007fa897008fb09700b7020700e4
:101ae000a22c2f0093142700e00037008701780014
:101af00003f0a1000c0178000000200061312400f7
:101b0000800f5100818f590011003c00000020001f
:101b100061312c00800f5600818f5e0014003a0066
:101b20000a01be000c00be00dcb79f00e7b79f00b3
:101b3000b40107000001be000800be00ad010700af
:101b40005fb39700efb397000000e00008003c008f
:101b50000226240023da20007fa897008fb0970088
:101b6000960207000226240023da2000bf00370077
:101b70008701780003f0a100060178006022b80018
:101b80000000200001f02300800f5100818f5900d8
:101b90003a0034004798de0022f82f00000141008f
:101ba00000002000010820000201e90003003300ca
:101bb0008180d1000080d300fbff3700000043008c
:101bc00081804b00010678008c01780003f0a100b1
:101bd000479ade00cf9ade000401be00f207b10092
:101be0000380b100b2b79f00c3b79f00f4ff2f007e
:101bf000f5072000bfb197008301e900030033001f
:101c00008582d1000482d300fbff37000482ea0002
:101c10008582ea008501660000016200fd07200060
:101c20008d026600000278000570a0003fb79700a3
:101c3000770017000000e900030033008582d1001f
:101c40000482d300fbff3700e00f5300e08f5b00fe
:101c500002003d0060021200e0821a000a00be008d
:101c6000f4b79f0085bf9f0066010700b0b79f00d3
:101c7000c1b79f008fba97007fb297003fb197001e
:101c8000cfb197000800be00f4b79f0085bf9f004a
:101c90006501070081067800020028000006610047
:101ca0000220270013f323000c00be0043020700ac
:101cb0000005be003fb19700cfb197000c00be00f9
:101cc000500107000001be000800be004d010700e2
:101cd0008221270013f32300380207000004be000e
:101ce000c2e82b00f35b23000c00be0033020700a8
:101cf0000001be000800be004b0107000006be0048
:101d00000001be000a00be00470107000004be003b
:101d10000a01be003b0107000001be000c00be002e
:101d200038010700b0b79f00c1b79f000801be008f
:101d30000800be00210207000005be00c2b42b004f
:101d4000133323001d020700e2a02e00d35d230001
:101d50002c0107000001be000a00be0017020700a8
:101d600052352b00a38823002f0107000001be007d
:101d70000a00be001102070012b6200063b3230060
:101d8000200107000001be000a00be000b02070090
:101d9000b2aa2a00a3e22300230107000001be002b
:101da0000a00be00050207000001be000800be00d8
:101db000140107000005be000001be000800be00bf
:101dc000fe0107000006be00020020000300240000
:101dd0000a00be000b0107000001be000c00be009f
:101de0006ffa07000005be003fb19700cfb1970022
:101df0000800be00f10107000001be003fb09700df
:101e0000cfb09700080107000001be000a00be0025
:101e1000fc0007000801be00fa0007000001be0038
:101e20000000200001f82300f60007007fb29700b1
:101e30008fba9700c721dd00020020000201400098
:101e400083814800479bde00cf9bde00e00f5300fc
:101e5000e08f5b0003003c000401780014000700e1
:101e60000001be007fa897008fb09700d301070044
:101e7000070037000800200009f82300050037009c
:101e80006044b800030037000a04be0001003700b8
:101e90000004be000800be004f0778004f06be00d9
:101ea0004f05be004f04be004f02b1000000060007
:101eb000889fbe0002047800f9072000890f5400b3
:101ec0000d0034000200200003f02700bb010700d2
:101ed000f807b100890f54001700340002002000f9
:101ee00003f02700b5010700f807b100890f54007f
:101ef00010003c001000370029f82f00890f540013
:101f00000d003d000200200003c82000ab010700c7
:101f10006806b000890f540007003d000200200051
:101f200003c82000a50107006806b000890f54000f
:101f300001003d0009047800f2072000080141007b
:101f4000cf91de00c711dd00020020009b010700d9
:101f50004f04be0000000600889fbe008a9fbe009e
:101f60008c9fbe000004be000400200005f827007e
:101f70008583600004037800840f5300858f5b0025
:101f800007003a000801be000800be008b010700f0
:101f90000001be000800be00a300070010003700cb
:101fa000e00f5000e08f58000f003c0081017800e6
:101fb00003f0a10000017800e00f5100e08f59000c
:101fc0006a00320010022000904188000801be0023
:101fd0000800be008b0007000001be00f0f90700fa
:101fe0000004be0061003700478cde00cf8cde00ad
:101ff000e00f5400e08f5c000f003a006044b8002e
:102000000400370000004000818048006104440063
:10201000e0844c000400200005082000818162005b
:1020200004017800e00f5100e08f5900f5ff320005
:1020300061041400e0841c00f807b1000980b100bd
:1020400081017800f307b200000178000200be00b1
:102050000170a0000808a300020032000000400048
:10206000818048008984d1000884d30000004000aa
:10207000818048009401200002002000031020000d
:102080006055b8006066b8000c0341008d834900bc
:10209000800f5300818f5b0006003c000606410064
:1020a0008786490006005000878058000a054100d5
:1020b0008b85490000004000818048008301d100e9
:1020c0000281d3000402e900efff3a00e00f500064
:1020d000e08f58001b0032000226240023da200083
:1020e0000000200001f82300460007000200200045
:1020f00003f82300410007000000e0001100350054
:102100000226240023da20000000200001f823002a
:10211000450007000200200003f8230037000700f5
:102120000000e0000300340062054500e0854d003a
:10213000040037006000b80061006500000545003c
:1021400081854d00c744dd0008002000000020000c
:1021500001f0230008044000898448008b85d100e9
:102160000a85d3000804450089844d000800be009c
:102170004f06be004f05be004f04be000000060023
:102180000001be008300780001f0a1000200780089
:102190000000060080007800040037003104e000f1
:1021a00002003a0000005100000006000101780022
:1021b0000108a300f9ff3a0081017800310178009d
:1021c000f4ef2f00020242000281ea0002016200e5
:1021d0000408280004016100f7ff32008300780042
:1021e000010178003104e000fdff3a0000005100d9
:1021f0000000060014002000d8013700f4ff2f0073
:10220000d601370007f82700078361000638e10090
:1022100004003a00f70720008783610087037100fc
:1022200001003a0003f0a200889fbe008a9fbe0012
:102230008c9fbe00470ade000480a100c71ade00a2
:102240000580a100070028000785600087856100e0
:10225000f70f20000720e1009e0032000728e10070
:102260009c003200010678000400e000b400320057
:10227000f7072000878060000170a0000500e000e3
:10228000c0003200f7072000878161000370a000c2
:10229000050652000f003a000b50e1000b0032001f
:1022a0000308e10002003a000200e1007e00320073
:1022b0000204500083845800040031000001fd0036
:1022c0008101fd008402fd008a05fd006044b80024
:1022d000210037000520e10005003d000001fd0060
:1022e0008101fd008402fd008a05fd000506520003
:1022f0007a60e100050035000170a1004722dd0091
:10230000848070008a807000630037006044b800e9
:10231000ef02660007ff2f00070666000500e000d9
:1023200006003400f08312008714dd000511de0082
:10233000071bdd00060171008519de007060e100f9
:102340000500350009047800820478000301780054
:102350008001eb00700656000b50e10003003a00cc
:10236000020040008380480004003700600414002d
:10237000e0841c0002005800838058000188a300fc
:10238000060032008100d1000080d3008984d30090
:102390000884d3000402e800270037000178a30076
:1023a00025003a000100e000030032008186cf00e2
:1023b000698656000a0037008c0020000000e0000b
:1023c00004003a0009007800880478000004eb005b
:1023d000700252008086cf000d0646000c06e90010
:1023e0007060e10006003500800078000900780088
:1023f000880478000004eb0070065600700252005a
:102400000c00e0000c0034008c08dd00f003160026
:102410000703de00868070000c00dd00074bde0045
:10242000060070008c4cdd000743de0086847400db
:102430000c44dd000c0252006120e1002000350058
:10244000610160000700280087816400f7ff270012
:1024500087836400070374000300e0000600320075
:1024600082037300040032000000e800e0804800ae
:102470000188a3000e003a00f70f20000720e100ba
:102480004a003d000170a1004722dd00810072007a
:102490008a8070000000be004f06be004f05be00df
:1024a0004f04be00000006006000b800faff3700cd
:1024b0008100d1000080d3000402e800eeff370065
:1024c0000401780089017400c20007008a8070004e
:1024d000f1ff370091f90700070278000001fd00c5
:1024e0008101fd008df907008702780085037200e5
:1024f0000778a300040032000001fd008101fd0007
:102500000d010700e4ff3700850362000768a300a0
:10251000080032000b50e10003003200f0ff2f00f2
:10252000f1ff2700dcff37000001fd008101fd0005
:10253000d9ff37000468a300d7ff3200faff370045
:10254000f8ff2700888360000b003a000000e000dd
:1025500009003a00830364008283730002003200a2
:102560000200be00ccff37000b50e100ceff3a0066
:102570000200be00c8ff3700140020008100640084
:102580003eff3700f8ff27008883610004003a000f
:102590000200e00002003a008c007800beff370025
:1025a000150020008301640039ff370001f827007f
:1025b0000000200081007500b7ff3700038368002a
:1025c0000700280007036300470ade000480a1001b
:1025d000c71ade000580a100f70f20000720e100e8
:1025e000420032000728e10040003200889fbe0010
:1025f0008a9fbe008c1f7800f107b200f307b2007b
:102600000400e000640032000170a0000500e0005a
:10261000680032000370a00085054200eb07b1009e
:102620000204b8000302b8008484440060854a00b4
:10263000020ab800848444000a854a00030ab800ec
:1026400004054500040033000804d0008984d2004a
:102650000a85d2008b05e9006158e1003d00350094
:102660000210200009016100030820008981610037
:10267000f70720008783640008867300c84cde00db
:10268000c853dd00878474004855de000300e00075
:102690000600320082037600040032008904e8005c
:1026a00060054d000a88a3000c003a00f70f2000d7
:1026b0000758e10044003d000a70a100c75ddd003d
:1026c0000a8575008a007300090078004f067800bb
:1026d0004f05be004f04be00000006000a05d100f1
:1026e0008984d3008b05e800f0ff3700881f78004d
:1026f0000604780009f90700070278000001fd00d0
:102700008101fd0005f9070087027800850372004a
:102710000778a300050032000001fd008101fd00e3
:10272000850007004f047800000006008503720052
:102730000748a30003003200f0ff2f00f1ff27003d
:10274000f8ff37000000200001f8270088807000a3
:10275000f4ff3700880178004848dd00808171006f
:102760004848de00c850dd0001007000c850de009f
:10277000060478000b0178001600070088807000be
:10278000d2ff37000500e0000500320017002000ee
:102790003a0007009dff370081037000f9ff3a00ff
:1027a000860078004f0678004f05be004f04be003b
:1027b0000000050083037100f9ff320027002000ac
:1027c0002e00070094ff370001f827008680700074
:1027d000f4ff37000100e000260032006101110023
:1027e0007810e10023003c006022b8007010e10086
:1027f0000400350080027800010078008000eb00c2
:10280000700151000200e000090034007003110063
:10281000062add00822ade008603dd008782720040
:102820000200de00860bdd00070070008208de007b
:1028300084817100f4ff27000482620084817100aa
:1028400004002800848262006102600005f0a60096
:102850000000060004827100070032000000e8005a
:10286000e0804800000006000002be006000b800e2
:10287000efff37006000b80000000600889fbe0030
:102880000004eb006138e10016003a000100e000ae
:1028900008003a00c800de004800dd008800200083
:1028a0000100e00003003a00c800de004800dd003f
:1028b000680444008184cf00e98454000600340099
:1028c0008908dd00f08314008703de008780700034
:1028d0000900dd0009044400610214004f04be0039
:1028e000000006000300e00008003a00c811de0006
:1028f0004811dd00880020000300e00003003a00da
:10290000c811de004811dd00680444008384cf0054
:10291000e9845400060034008919dd00f0831400b6
:102920008713de00878171000911dd00090444006e
:10293000e1021400e9ff37000478a300040032002c
:102940000578a300030032000168a30001003a00eb
:102950000200be000160a00000000600889fbe00cb
:102960008a9fbe00841f7800170007004f00780080
:1029700011003300f0ff2f00838f6c0006003b0036
:10298000040565000a00a7000800370009f0a6004a
:102990001000200008003700820f5400838f5c0075
:1029a000030039001000200001003e00000020005c
:1029b00009f0a7000000ea004f05be004f04be006a
:1029c0000000e000000006000004be004ff7070012
:1029d0000003be000405be000200be004bf7070066
:0829e000844f750000000600a1
:020000040000fa
:1029e8000000fa00c042a800c082a800c882a8005f
:1029f8006800a8006820a8006bc0a8006000a800b4
:102a08006020a80063c0a8006105800000002700be
:102a180001007000600588008660a9009660a80023
:102a28000421ef0021088000f0fc2f0000806000e6
:102a38000050a0002008880010a127001008880076
:102a48000021ef0021058000f0ff28008080600051
:102a58000000250001007000200588008460a9009e
:102a68009460a8001021ef0081088000f0fc2f007e
:102a7800008060000050a000800888009086210037
:102a8800600888000621ef0031058000f0ff28006b
:102a98000080600000e0a0003005880084e0a90004
:102aa80094e0a80011e1a8005e010700d802070021
:102ab8000080eb00601988000080fa000000060022
:102ac8000000fa00604080000000e00016003200bc
:102ad80000a8210061002000df0207000c28ef0099
:102ae8000040800000f0a7000000ea000000e900b4
:102af8004f00de0000408800004080000000e00039
:102b080005003a000228ef0005e1a9000000eb00eb
:102b1800cb02070004003700104080000000e000ee
:102b280001003a0086000700704080000000e000c5
:102b38001900320000a8210061002000c602070029
:102b48000e28ef001040800000f0a7000000ea0007
:102b58000000e9004f00de001040880010408000af
:102b68000000e0000400320005e1a8001000200089
:102b7800504088000800370005e1a90000408000a7
:102b88000000e000020032006d000700020037007c
:102b98000000eb00aa020700804080000000e0006f
:102ba8000e00320000a8210061002000aa020700e0
:102bb8001028ef002040800000f0a7000000ea0085
:102bc8000000e9004f00de0020408800204080001f
:102bd8000000e0000100320075000700904080000e
:102be8000000e000380032001228ef00504080005a
:102bf80000f0a7000000ea000000e9004f00de0036
:102c080050408800004080000000e0001f003200b3
:102c1800330207004040880040408000e90f500020
:102c280001003e000828ef00404080008000eb00d3
:102c38000081eb000289b900020178006002b90046
:102c480084017800030141008081eb000300b80093
:102c58000101410082007800f23f200003002000bb
:102c6800bdf6070000007800304088005040800022
:102c78000000e00002003200304080000100370010
:102c88000000eb006e02070007003700504080008c
:102c98000000e000020032000080eb000100370075
:102ca8000000eb0066020700204080000000e00002
:102cb800050032003e00070000fa20000100200055
:102cc800650207003a000700a04080000000e0000d
:102cd800160032001428ef00004080000000e000d9
:102ce80008003200104080000000e00005003a00b3
:102cf80013000700204080000000e00001003200bf
:102d08002b000700004080000000e00007003a00a8
:102d1800104080000000e00004003a0020408000dd
:102d28000000e000010032002100070000fa200046
:102d380001002000480207000080fa000000060099
:102d48000000fa00e601070040408800404080008b
:102d5800e90f500001003e000828ef0040408000c5
:102d68008000eb000081eb000289b90002017800c5
:102d78006002b90084017800030141008081eb0002
:102d88000300b8000101410082007800f23f2000f2
:102d98000300200070f6070000007800304088002b
:102da80030408000260207000080fa00000006007c
:102db8000400fa00004080000000e0002b00320010
:102dc800104080000000e0001700320050408000f2
:102dd8000000e00011003200304080008000eb006d
:102de800420620000289b900020178006002b90099
:102df8008401780003014100430620000300b80065
:102e08000101410082007800f2ff2f00030020003a
:102e180051f60700008fbe00170037006000b800a9
:102e2800008fbe0014003700304080008000eb00a7
:102e3800420620000289b900020178006002b90048
:102e48008401780003014100430620000300b80014
:102e58000101410082007800f2ff2f0003002000ea
:102e68003df60700008fbe00030037006000b80081
:102e7800008fbe000828ef0011002000d0c0b3006a
:102e88009c00070011002000a0c0b30099000700b3
:102e98001e0078000a00070011002000c0c2b3001d
:102ea800940007001100200000c2b3009100070041
:102eb80040408000ab0007000080fa0000000600d8
:102ec8000200fa00000f7800300620009e0078000b
:102ed800808f5000290036001e007800c200de00f6
:102ee800b04721000008b8000101d100d0cc2c0067
:102ef8000010b8004308de006a00b900000078003e
:102f080000005100004078000043b000110020008c
:102f1800780007009e007800d0cc2c000008b8008c
:102f28004309de00d0cc2c000010b8004308de00b6
:102f38006a00b900000078000000510000407800e5
:102f48000043b000110020006a0007001e0178004d
:102f5800d0cc2c000010b8004308de006a00b9008d
:102f68000000780000005100004078000043b000e5
:102f7800110020005f000700280037001e007800bd
:102f8800e90f50001a0036009e007800d0cc2c00c3
:102f98000008b8004309de00d0cc2c000010b800af
:102fa8004308de006a00b900000078000000510004
:102fb800004078000043b000110020004d000700d9
:102fc8001e017800d0cc2c000010b8004308de00a9
:102fd8006a00b90000007800000051000040780045
:102fe8000043b00011002000420007000b0037002a
:102ff8001e017800d0cc2c000010b8004308de0079
:103008006a00b90000007800000051000040780014
:103018000043b00011002000360007000080fa00cd
:10302800000006000000fa00c802a900c822a80093
:10303800cc02a8008000200080118800113a80008e
:10304800000027008080600000002600808f50006c
:1030580003003a00c0002000c011880010003700ab
:10306800113a8000000027008080600000002500e1
:10307800808f500003003a00c0002000c011880073
:1030880007003700113a8000000027000080600028
:103098000000e00002003a0070062000c01188001d
:1030a80000002a009011880087e0a900910580009f
:1030b800f0ff2800808060000000230001007000fd
:1030c8009005880097e0a80087c0a90091058000b6
:1030d800f08f2f000080600000a0a00090058800fd
:1030e80097c0a90031e2a8003342a8000080fa0086
:1030f800000006000400fa00004f7800110798004d
:10310800c8ff07000b003700000000009111800085
:1031180000202000008060000000e000fbff3a0073
:103128001e00fb00a01188001e0090000000e900ae
:10313800100798001e0090000000e000f2ff3a001f
:103148000000000091118000001020000080600045
:103158000000e000fbff320031e2a9000080fa0025
:10316800000006000400fa00100798000040eb0079
:10317800104798001100200000c2b300ddff0700cf
:103188001100200000c3b300daff0700110020007f
:1031980080c7b300d7ff070030c0b300004f7800e6
:1031a800150037001e00fb004200dd009e00900065
:1031b8000008de00004078006f406000104798006b
:1031c8001e409000e94f5000040034001e4090005b
:1031d8007043b00010479800030037001e4090006d
:1031e8000043b00010479800110020001e409000d6
:1031f800c0ff07001e4fe9001e4078000004e000f1
:10320800e8ff3d001100200000c2b300b9ff07002d
:103218000000eb00100798000080fa00000006008c
:103228000600fa0010079800210798000040eb00fc
:10323800104798001100200000c2b300adff07003e
:103248001100200000c3b300aaff070011002000ee
:1032580080c7b300a7ff070070c0b300004f780015
:103268001f0037001e00fb004202dd001e01900017
:10327800ae019000f002120004003b008502ea0053
:103288000518de008000eb0004003700851add0019
:103298000410de00008072008418de000040780010
:1032a8006f406000104798001e409000e94f5000a2
:1032b800040034001e4090007043b000104798008e
:1032c800030037001e4090000043b00010479800ec
:1032d800110020001e40900086ff07001e4fe900e5
:1032e8001e4078000004e000deff3d0011002000d1
:1032f80000c2b3007fff07006000b8001007980005
:10330800210798000080fa00000006000800fa0073
:10331800889fbe00300798000040eb00004f7800ff
:103328001100200000c2b30072ff07001e00370022
:103338003e0090008000eb00f0f407000004be009f
:103348001e80fb0061001000cf80de00e8f407005b
:103358000001be000000200001122400f2f6070060
:103368000001be000800be000bf50700c5f4070009
:10337800100798001e019000d0cc2c000010b80057
:103388004308de006a00b900000078000000510020
:10339800404798004e4090000043b00011002000c4
:1033a80054ff07001e4fe8001e407800e14f500010
:1033b800dfff36004f04be000080fa000000060060
:1033c8000400fa00100798000000eb00000f7800d6
:1033d800060037001e0090001e00400010407800d4
:1033e8001100200043ff07001e0fe8001e00900098
:1033f80066fb07009e0f5000f6ff31000080fa00c0
:10340800000006000400fa00100798001e00900053
:1034180001022000810f50000b003200411f2000e4
:10342800810f500005003200e80f500009003a00f3
:103438000040eb00004f78000800370060c6b3007a
:10344800004f78000500370050c5b300004f7800e2
:103458000200370050c5b300004f78001102800009
:10346800000e20000100700010028800213a800040
:10347800f08f2f0000806000203a88001e81fb003a
:1034880080072000a10920003374200080497800bb
:1034980081497800824978001200200060042000e9
:1034a8007105200023742000804978008149780044
:1034b8008249780000000000103a80006100600036
:1034c8000000e000fcff3a0011028000f0f12f003c
:1034d80000806000100288000080fa0000000600ea
:1034e8000200fa002ca3a90021e3a800011980001a
:1034f800f0cf2f00008060000019880001198000bb
:10350800000e2000010070000019880011198000c9
:10351800f0ff210000806000101988002343a900f3
:103528001119800030fc2f000080600010198800fd
:103538002223a9002203a90025e3a900211980005c
:1035480000fc2f0000806000f001b3002019880003
:103558002119800000f02100010070002019880066
:1035680028e3a9004119800000ff2f0000806000b7
:103578005000b300401988003023ef002023a80032
:103588000000000000198000610060000000e000f9
:10359800fcff320001188000010f78002023a900e9
:1035a80021e3a9001e0078000080fa000000060050
:020000040000fa
:1035b80016080000020000000000000000080000db
:1035c80016000000000000001808000002000000bb
:1035d800000000001a0800001800000002000000a7
:1035e800000080003f000000c03f00000000000015
:1035f800dccfd1003500000000000000c0153f00fe
:103608003208000002000000000000000000000076
:020000040000fa
:103618000000fa008221ef008021ef008461a800f9
:10362800210c800080ff2f00008060006000b30044
:10363800200c880013e1a8000080fa0000000600b2
:103648000200fa00000f78009e007800010c880044
:083658000080fa0000000600ea
:020000040000fa
:10366000f03fb1000180b10006003500ee03090013
:1036700000000000403fb1000180b100fbff3d00b1
:103680001000b000203fb0000200350000800900ab
:0836900000000000000006002c
:020000040000fa
:103698000000fa00d2fc07000140fe0008fd070008
:0436a800fdff3700eb
:020000040000fa
:0200000401f009
:04000000ffffff00ff
:020000040000fa
:0200000401f009
:04000800ffffff00f7
:020000040000fa
:0200000401f009
:04000c0000000000f0
:020000040000fa
:0200000401f009
:040010007b00000071
:020000040000fa
:0200000401f009
:040014005f00000089
:020000040000fa
:0200000401f009
:04001800fb000000e9
:020000040000fa
:0200000401f009
:04001c00c20000001e
:020000040000fa
:0200000401f009
:04002000ff000000dd
:00000001FF
